:10000000F6284D346134793475346D3469343034C4
:1000100032341B08AB00AB0303191928AB030319D7
:100020001C28AB0303191F28AB0303192228013036
:100030009B0005118511080005118515080005159F
:10004000851108000515851508000030A80028084E
:100050008900831608148312080808000030A800DD
:100060008312280889002708880083160815553050
:100070008900AA308900881488183C288312080057
:1000800003309700FF309500080032308F002508BC
:1000900090000000000000000000061F9401861E72
:1000A0009501900B4928861D930100000000980BD4
:1000B0005E28FA309800990B5E289A018F0B47282A
:1000C000080005141F1C6C2800008316F9308600F8
:1000D0008312F930860008008316FD3086008312F3
:1000E000F9308600080005108316FF308600831261
:1000F000FF308600080005141F1C872800008316A7
:10010000F93086008312F9308600043046288316C1
:10011000FD3086008312F930860004304628051031
:100120001F1C9B2800008316FB3086008312F930C9
:100130008600043046288316FD3086008312043082
:100140008F0025089000FB30061DF9308600061F41
:100150009401861E9501900BA328861D9301FB3008
:10016000061DF93086008F0BA1280800920104308B
:100170008D002418C82840201230A10004304620E9
:10018000970BC5281518F0284020A10BBE28CC28B5
:1001900048304620FF3097001208F1209100910965
:1001A00009308E00D628910C031CD8288F20DA281D
:1001B0007B200000970BDF281518F02840208E0BBD
:1001C000D3287B20970BE7281518F02840207B20A8
:1001D000970BED281518F0284020920A8D0BCC289B
:1001E00008008207533443344534413483160230C7
:1001F0008100FF308600F230850083126430462093
:10020000FF30850025209B005A30A5001430A60041
:10021000861B1029061E10296330A5001530A60084
:10022000FF309F00C8304620FF30980099009A00A8
:100230009E0009200A30A10064304620051086196E
:100240003529643046200514A10B1C2905109B0A92
:1002500005301B02031C2E2901309B001B08A70040
:100260002E200920861D32291029FF3093001E30D0
:100270008C004520131C10298C0B39291930A00043
:100280002608A10006194729A10B4229582926084A
:10029000A100061D4E29A10B49295829A00B402970
:1002A0009F01F93086008316FD30860083125E2997
:1002B000F93086008316F93086008312FF309300F0
:1002C00007308C004520131C10298C0B62291B0859
:1002D000AB00AB0303198E29AB0303198829AB03C9
:1002E00003198229AB0303197A2901309B00A70067
:1002F0002E208E2905148316FF3086008312861D5A
:1003000010297F29FF30A400B620131C102984294E
:10031000861F8C299B0A2E299E01C929861B842AA7
:100320001F18C9296120861D102906189329FF303E
:10033000A400B620131C102906189229861BB52983
:1003400099296120FF304620861D10290618A4290E
:10035000FF30A4001830A300B620131C1029061883
:10036000A129861BB529A30BAC296120A401B620C5
:100370006120131C10290618A129861FB729732094
:1003800064304620131C10290618A129861BC02999
:10039000B5296120861D10290618CA29FF30A4003E
:1003A000B620131C10290618C929861FD0297320CE
:1003B000FF309D0096009A00E629B6209D01131C8F
:1003C00010290618C929861FDD297320FF309400E3
:1003D00064309900FA30980096304620131C10299A
:1003E0000618C929141CDE29861F2C2AEC29732023
:1003F000FF309C00C830A1000E304620131C10298D
:1004000006187A2A861F082AA10BFC299C01FA29C2
:1004100061201D1C3C2A0D30A2000A304620131C0E
:10042000102906187A2A861B292AA20B0D2A9D015B
:100430001C183C2A1618632A1930A2000A304620DC
:10044000131C102906187A2A861BF729A20B1E2ACC
:10045000632A73209601FC2961204B30A1000A30E9
:100460004620131C102906187A2A861B3A2AA10B4B
:100470002F2A3C2A9D01F729612006308C00193073
:10048000A1000A304620131C102906187A2A861B60
:10049000F729A10B412A8C0B3F2A9D0161200B30CB
:1004A0008C001930A1000A304620131C10290618B0
:1004B0007A2A861BF729A10B532A8C0B512A1F1C61
:1004C000632A0330662A0430662A1830A3009D018F
:1004D0001E1C6C2A1A1C3C2A131C102906187A2A86
:1004E000861B752AB620A30B6C2A44309900FA307B
:1004F00098003C2A6120FF304620FF309A00861D7C
:10050000102906187F2A652AFF309F00A400612069
:10051000FF304620861D102906188A2A0930A300BC
:10052000131C10290618872AB620A30B902A7320C3
:0A053000861D1029061C982A872A50
:02400E00F13F80
:00000001FF
