:100000003D2832308C008330810001080038031D08
:1000100005288C0B032803348F003C300220063067
:100020008D0011082A20900008308E00900DF930C4
:1000300086000318FB30031CF930831686008312F8
:10004000043002208E0B1628910A8D0B11288F0B7D
:100050000D28033482070934A9343D342B34A534E8
:10006000F4340934A9343D342B34A53474340934C0
:10007000A9343D342B34A534B434831602308100C6
:10008000FF3085008600831201208610FD30831624
:100090008600831211308D0001208D0B4C28061133
:1000A000F93083168600831206308D0001208D0BF7
:0C00B00056280E30022091010C205B2825
:02400E00F93F78
:00000001FF
