:040000002500DF0AEE
:1000300053087408650861086C0874086808580853
:10004000560832082E08340820082008420879088B
:100050004D087208200842086F086E0867086F088C
:100060002008200861086E0864082008200820087D
:1000700020085308740865087608650848082008B1
:10008000B5021507460A12023100000813023100BA
:100090000008320C2A0011022B00A6076F00EB02A9
:1000A0004D0A660770000000000000000000EA0230
:1000B0004B0A0308010C2700480C4A09040C2800CD
:1000C0000D0280092C006C02080C2900FB0C0600B4
:1000D000040C4A092C03F90C26000306FB0C030749
:1000E000F90C0600040C4A09E9026A0AF90C060038
:1000F000080C4A09AD02E802600AE7025C0A03083C
:10010000E2015308430845084508530843084508D9
:100110004908530843084508410875004009490942
:1001200066078F0A0606B70A2604FD0C0600110CA6
:1001300027004909E702990A4604F90C06009D0CBC
:100140004A099D0C4A0910050F056D005A090F0751
:10015000B70A1007E10A5A090F07B70A1007E10AA0
:100160005A090F07B70A1007E10A4009A50AFF0C50
:1001700006006607E10A0607B90AFF0C4A09FF0CE8
:100180004A096607E10A0606C10A6607E10A14027F
:100190002E001005750040096D005A091007E10A8C
:1001A0000606B70A5A091007E10A0606B70A5A09ED
:1001B0001007E10A0606B70AEE02CB0AB70AC20C1C
:1001C0000200FF0C0600280C3400FF0C3200FF0C6C
:1001D00033000000C60C3200C00C33000000C10C1C
:0E01E00033000000C50C3200BF0C33008D0A46
:021FFE00EA0FE8
:00000001FF
