:10000000320C2800830C21000102000D4307040A72
:10001000E802020A00082B00400C0109060C290026
:100020000D0245092C002E09AD02E902100A400C10
:100030000109050C29000D0245092C002E09AD020D
:10004000E9021B0A0D0245092C00040C2F09AD0220
:10005000F90C26000600EB020C0A0008080C2A0026
:100060006C03F90C26000306FB0C0307F90C0600D1
:10007000040C2800830C21000102000D43073C0AF8
:10008000E8023A0AEA02300A0008E201FF084108E1
:100090003D082B08A60820082608A408F408AE0886
:1000A0009608D0080908A9083D082B08A508F408F7
:1000B0003A0887082C08AE089708D0080D080908E8
:1000C00074082B08A50874082608A408F408AE08CC
:1000D0009508D0080908A9083D082B08A508F408C8
:1000E0002F08A5089808F8081508D0080A08E90894
:1000F000B8082708A508D8082608A408F408AE08F8
:100100009608D008000809083D082B08A508F4083F
:100110002F08A4083008CD089508D0080008090861
:100120003D082B08A7086C082608A408F408AE08A8
:100130009608D008000809083D082B08A508F4080F
:100140003508E608E408AE089708D0080E08C90884
:10015000C2082B08A50874082608A408F408AE08ED
:100160009508D008000809083D082B08A508F408E0
:100170002E08A708A808BE089508D0080008090896
:100180008D082B08A50800082608A408F408AE0866
:100190009608D008000809083D082B08A508F408AF
:1001A000200846085C08AE089708D0080F084108E8
:1001B0003D082B08A60820082608A408F408AE0865
:0401C0009608D008C5
:10020000020C0200FF0C0500060000092604FD0C8C
:100210000600110C29000009E9020B0B4604FB0C37
:100220000600060C29000009E902130B0E0C010957
:0E0230006D00010C0B090C0C2D000B091B0BB3
:0203FE00000BF2
:021FFE00F90FD9
:00000001FF
