:100000002500000B320C2A00F90C2B000000EB023B
:10001000060AEA02040A0E070308240C2B00EB026E
:100020000F0A03082700480C0309040C28000D02DE
:1000300037092C006C02080C2900FB0C0600040C8C
:1000400003092C03F90C26000306FB0C0307F90C2B
:100050000600040C0309E902210AF90C0600080C49
:100060000309AD02E802170AE702130A0308E201D6
:100070005308430845084908530843084508410800
:08008000530843084508450838
:10020000C20C0200FF0C06006E0002092604FD0C61
:100210000600110C27000209E7020B0B4604F90C3B
:100220000600060C27000209E702130B0E0C030957
:080230006D001209AE02180B6B
:021FFE00E90FE9
:00000001FF
