:10000000320C2800830C21000102000D4307040A72
:10001000E802020A03082B003C0C0109060C290027
:100020000D0227092C00080C2A006C03F90C26008D
:100030000306FB0C0307F90C0600040C0109EA0295
:10004000150AAD02E902100AEB020C0A0308E201EC
:100050000908A9083D082B08A508F4080908A908FB
:100060003D082B08A50874080908A9083D082B08B5
:04007000A508B40823
:10020000020C0200FF0C0500060000092604FD0C8C
:100210000600110C29000009E9020B0B4604F90C39
:100220000600060C29000009E902130B0E0C010957
:060230006D000B09180B24
:0203FE00000BF2
:021FFE00F90FD9
:00000001FF
