:1000000000C01FED1DBFB89AC098C19829E1B49BEC
:1000100028E352E330D0B89A5FEF2DD05FEF2BD0BA
:100020005FEF29D055E527D0B99A5FEF24D05BE385
:1000300022D001D0FECFE2EBF0E058E41CD060E02B
:10004000C895302D303031F006D0E395639564309B
:10005000A1F3F6CF089509E0889410F4B99A02C08C
:10006000B998000054E007D036950A95B1F7B99ACF
:1000700058E001D00895422F0ED00DD00CD04A95F3
:100080000000000000000000000000000000B1F7C8
:100090005A9589F70895000000000000089551E383
:1000A000EADF5A95E9F751E4F6DF5A95E9F70000DF
:1000B0000895534345415343454953434545000043
:00000001FF
