:0400000025009D0A30
:100010004D0875086C08740869086D086F08640855
:10002000650832082E08300831086208650874082F
:100030006108640C1C0A320C2A00C60C2B0000005C
:100040000000EB021F0A000066076E000000F302CA
:100050002E0AFA0C3300F4022E0A7500EA021D0A79
:1000600000081607390A0000F90C0600F90C2600F2
:100070000008FD0C0600F90C26000008DF0C060045
:10008000DF0C2600000816074C0A0000D90C0600F9
:10009000D90C2600040C1C0ADD0C0600D90C260025
:1000A000040C1C0A16075B0A0000DB0C0600F90CA6
:1000B0002600040C1C0ADD0C0600040C2A00370C78
:1000C0002B00FB0C4607F90C260000000000000086
:1000D0000000FB0C4607F90C2600000000000000A1
:1000E000EB02610A66076E0000000000FB0C460789
:1000F000F90C2600EA025F0A0008480C1C096D0092
:10010000040C28000D0298092C006C02090C29002F
:100110008C0A2C0303078E0A5209900A4309000037
:10012000E902890A43094309AD02E802820A00088C
:10013000E2015308430845084108820C02003E09C9
:10014000FF0C3200330034003500640C1C096606D5
:10015000C30A1E0C3800640C1C096606C30AF802A8
:10016000AB0AFF0C06001B096607B30A1E0C380019
:10017000640C1C096606B60AF802B80A1B09660771
:10018000BE0A3E0972006607C30AFF0C2E00110C5E
:1001900027001B096607C30AE702C90AFF0C3600DD
:1001A000190C3700140C38004606D90AF802D40A94
:1001B000E80A140C38004607E00AF802DB0AE80AED
:1001C000F702D20A7600D90C2600DD0C0600EC0AF4
:1001D000D90C2600D90C0600070C27001B09E702E2
:1001E000EE0A0606BF0BC20C02001206020B0C0C34
:1001F00038007D096606F70AF802F90A1B09660746
:10020000FE0AC10B0607200BFF0C3600D90C260096
:10021000D90C06003109FF0C1C0966079F0A8606E7
:100220000D0B140C3A000E079F0A86060A0B7D0977
:10023000FA02130B3E0966079F0A86071B0B0A0B7F
:100240007D090E079F0A0607200BFF0C30003100C6
:100250003500640C3400FA0C330066079F0A8606EA
:10026000200B0607690B2D0B3E09FF0C2F00C80C55
:1002700038000E0C1C090E079F0A8606B50B0607F0
:10028000450BF802390B6F00370B31091007790B5A
:100290000D0C39000A0C1C090E079F0A8606B50BC7
:1002A0000606660BF9024A0B70000F06790B110661
:1002B000A00B190C39000A0C1C090E079F0A8606B0
:1002C000B50B0606340BF9025B0BA00B3E0971005F
:1002D000390B31094B0C38000A0C1C090E079F0A18
:1002E0008606B50B0606770BF8026C0B790B7000CF
:1002F000340B3109060C2700190C38000A0C1C09B4
:100300000E079F0A8606B50B0606340BF8027E0B15
:10031000E7027C0B700031090B0C2700190C380028
:100320000A0C1C090E079F0A8606B50B0606340B3D
:10033000F802900BE7028E0B1607A00B030CA30B21
:10034000040CA30B200C3A0070001507790B0E0764
:100350009F0A8606B50B0606B00B7D09FA02A70BAD
:10036000440C3400FA0C3300790B3109FF0C1C09E2
:10037000FF0C350066079F0A8606BA0BA20B7D09A3
:10038000BF0B230C3B003C001C023B007D096607B1
:10039000D30B7D096607D30B7D0919096607D30BBB
:0E03A000FB02CD0BC40B6607D30BBC02C40BD3
:021FFE00EA0FE8
:00000001FF
