:0400000025009A0A33
:100010004D0875086C08740869086D086F08640855
:10002000650832082E0830086208650874086108FF
:10003000320C2A00C60C2B0000000000EB021C0A48
:10004000000066076E000000F3022B0AFA0C330072
:10005000F4022B0A7500EA021A0A00081607360A8B
:100060000000F90C0600F90C26000008FD0C060043
:10007000F90C26000008DF0C0600DF0C2600000843
:100080001607490A0000D90C0600D90C2600040CFA
:10009000190ADD0C0600D90C2600040C190A1607F3
:1000A000580A0000DB0C0600F90C2600040C190AA3
:1000B000DD0C0600040C2A00370C2B00FB0C460755
:1000C000F90C26000000000000000000FB0C4607B1
:1000D000F90C2600000000000000EB025E0A660733
:1000E0006E0000000000FB0C4607F90C2600EA0237
:1000F0005C0A0008480C19096D00040C28000D0268
:1001000095092C006C02090C2900890A2C030307AD
:100110008B0A4F098D0A40090000E902860A40094E
:100120004009AD02E8027F0A0008E20153084308D3
:1001300045084508820C02003B09FF0C32003300E1
:1001400034003500640C19096606BA0A1E0C380022
:10015000640C19096606BA0AF802A80AFF0C060020
:100160001E0C3800640C19096606B00AF802B20ABF
:100170003B0972006607BA0AFF0C2E00110C27001B
:1001800018096607BA0AE702C00AFF0C3600190C04
:100190003700140C38004606D00AF802CB0ADF0AF2
:1001A000140C38004607D70AF802D20ADF0AF70211
:1001B000C90A7600D90C2600DD0C0600E30AD90C2A
:1001C0002600D90C0600070C27001809E702E50AEB
:1001D0000606B30BC20C02001206F60A0C0C38001D
:1001E0007A096606EE0AF802F00A9C0A0607140B62
:1001F000FF0C3600D90C2600D90C06002E09FF0C86
:10020000190966079C0A8606010B140C3A000E07B2
:100210009C0A8606FE0A7A09FA02070B3B09660762
:100220009C0A86070F0BFE0A7A090E079C0A06072E
:10023000140BFF0C300031003500640C3400FA0C54
:10024000330066079C0A8606140B06075D0B210B1C
:100250003B09FF0C2F00C80C38000E0C19090E07C3
:100260009C0A8606A90B0607390BF8022D0B6F00B6
:100270002B0B2E0910076D0B0D0C39000A0C1909F8
:100280000E079C0A8606A90B06065A0BF9023E0BBE
:1002900070000F066D0B1106940B190C39000A0C37
:1002A00019090E079C0A8606A90B0606280BF902F7
:1002B0004F0B940B3B0971002D0B2E094B0C380092
:1002C0000A0C19090E079C0A8606A90B06066B0B79
:1002D000F802600B6D0B7000280B2E09060C27002E
:1002E000190C38000A0C19090E079C0A8606A90B7E
:1002F0000606280BF802720BE702700B70002E093D
:100300000B0C2700190C38000A0C19090E079C0A5F
:100310008606A90B0606280BF802840BE702820B5F
:100320001607940B030C970B040C970B200C3A0048
:10033000700015076D0B0E079C0A8606A90B0606B2
:10034000A40B7A09FA029B0B440C3400FA0C33001C
:100350006D0B2E09FF0C1909FF0C350066079C0A6E
:0A0360008606AE0B960B7A09B30B6C
:021FFE00EA0FE8
:00000001FF
