:040000002500BD0A10
:100010004D0855084C08540849084D084F08440835
:100020002008200820084208590820082008200835
:100030002008530854084508560845084808200871
:100040002008200841084E084408200820082008FD
:100050004D085208200842084F084E0847084F082C
:100060002008200820082008200820082008200850
:100070002008200820082008200820082008200840
:10008000B5021507460A12023100000813023100BA
:100090000008320C2A0011022B0006076F00EB0249
:1000A0004D0A0000EA024B0A0308010C2700480C25
:1000B0004A09040C28000D027B092C006C02080C74
:1000C0002900FB0C0600040C4A092C03F90C26003D
:1000D0000306FB0C0307F90C0600040C4A09E902AD
:1000E000650AF90C0600080C4A09AD02E8025B0A31
:1000F000E702570A0308E201530843084508450888
:10010000530843084508490853084308450841086F
:100110007500400949092604FD0C0600110C270052
:100120004909E702900A4604F90C06009D0C4A09A9
:100130009D0C4A09FF0C2F006D000F07A80A5509F6
:100140000F07A80A55090F07A80A550940099C0A74
:10015000FF0C0600A607AA0AFF0C4A09FF0C4A0971
:10016000A606B00A14022E006D00030C56094009C1
:10017000A606A80AEE02B40AA80A820C0200FF0C26
:100180000600270C3400C60C3200C10C33000000FE
:02019000000B62
:100200007500400949092604FD0C0600110C270061
:100210004909E702080B4604F90C06000F059D0C7E
:100220004A099D0C4A090F07160B9C0A6D005509D7
:0C023000550955094009A607160B160BCE
:021FFE00FA0FD8
:00000001FF
