:0400000025008F0A3E
:1000100020082008200820082008200820082008A0
:100020004D0855084C08540849084D084F08440825
:100030002008200820084208590820082008200825
:100040002008530854084508560845084808200861
:100050002008200841084E084408200820082008ED
:100060004D085208200842084F084E0847084F081C
:1000700020083008370830083508300820082008E4
:1000800020083608360832083508330835082008B5
:100090002008200820082008200820082008200820
:1000A000320C2A00C70C2B0006076F00EB02540A23
:1000B0000000EA02520A0308010C2700480C51090B
:1000C000040C28000D0282092C006C02080C290087
:1000D000FB0C0600040C51092C03F90C2600030646
:1000E000FB0C0307F90C0600040C5109E9026C0A29
:1000F000F90C0600080C5109AD02E802620AE70299
:100100005E0A0308E20153084308450845085308FE
:100110004308450849085308430845084108820C2C
:100120000200FF0C060050092604FD0C0600110C0D
:1001300027005009E702990A4604F90C0600060C4C
:1001400027005009E702A10A0E0C5109FF0C2F00ED
:100150006D000F07B30A5C090F07B30A5C090F07AC
:10016000B30A5C09A80AFF0C0600A607B50AFF0C33
:100170005109FF0C5109A606BB0A270C2E006D0081
:0A018000030C5D09EE02BF0AB30A8A
:021FFE00FA0FD8
:00000001FF
