:10000000EE0A3306090AB80CD2014307090A330580
:1000100072001202B20233070F0AA305000AE201BE
:1000200004080A08FD088C087F0807080A08030866
:100030000608FE0804080708FD088D0804080908DA
:10004000FD0844080008000804080808FD08950891
:10005000410804080808FD0847087F080408080844
:10006000FD084A08530804080808FD084908000864
:1000700004080808FD084B08FF0804080808FD08E4
:100080004808000804080808FD085008000804088B
:100090001108FD084D081F080F087F087F087F081A
:1000A0007F081F081F086308630803080608F9088B
:1000B000E008BF087F083E08100CA305340BA30519
:1000C0003D0BA3052F0B8C05AC052700660026060B
:1000D000670A2607690A0605040C2A00EA026E0A66
:1000E0002607660A030C2A00EA02740A6C067A0ADA
:1000F0006606240B6C067C0AB6024307800AB5022A
:100100004307830AB402D406260B2607660A900A20
:100110008C05AC042700130CE1068C0A06052A00A6
:100120000400CC04EC0407028C06EF01670209040A
:10013000080C2800AC06A90AEA029C0AAF0AAC0621
:10014000A70A050C2A00A40AEA02A40AAF0A260795
:10015000AC0A2606A90AAF0A2607AC0AAF0A66024D
:10016000070C2A00EA02B20AEC06E60A8C06C50A67
:100170002603260326032603260326032603260337
:100180002603260326032603CF0A020C2A00CC06E8
:10019000E10A27030302A9016603EA02CD0ACC069D
:1001A000EC052B03EB052606EB04E8029F0ACC05C1
:1001B000A802A8020B022700AC06A70A030C2A001B
:1001C000A30A290429036603EA00CD0AD80C2100FA
:1001D00007022B008C07EF010604000825000F0C16
:1001E0000200FA0C060083072C0B6C006600660602
:1001F0006C05140C3100FF0C5D09F102FB0A6C0761
:10020000210B730072006F00020C31000109A3047E
:1002100030000109A304000D2E004306210B8809BC
:10022000EE000109A3048809B102100291004307FE
:100230001C0B040CAE005F09EE02110B61095C0996
:10024000030BA305000BA6062C054C0476007500D5
:1002500074000C042C070C05590937005A093800A2
:10026000FF0C5D096F00070C8809FD0C88098E0CD6
:1002700088095F0961095C098C04AC056F00660997
:100280000B02FD0F43069B0B1D0F4306900B380F0F
:10029000F80E4306600B040C8B00FB0E43073E0B6D
:1002A00066090B02FD0F43073E0B66090B024E0F5A
:1002B0004306BF0B7E0C8B00FD0E43073E0B3B0B32
:1002C0000B023C0066090B023D00F80ED00F4307FD
:1002D0003E0B66090B023E00F80EC80F43073E0BAB
:1002E00066090B023F00F80EC00F43073E0BF406F1
:1002F0003E0BF405FF0C5D096F000B0C8809FD0C2B
:1003000088094F0C88095F091B0C2400A402000215
:100310001F0E88091F0C84011F0E4307860B3A0B22
:1003200066090B02970143073E0B66090B02980111
:1003300043073E0B3B0B66090B025F0F4307A20B03
:100340001005AA0BD10F4306AA0BC20FFE0E4306DF
:10035000C80B3E0B66090B02E00F43073E0B10066D
:100360003B0B0C073E0B66090B02390066090B02BA
:100370003A0066090B023B000C044C043E0B660974
:10038000590963095A0963095B096309010CF60BF2
:1003900066090B02E00F43073E0B4C06D30B2C06FD
:1003A000D30B86073E0B110CEF01590963092C078B
:1003B000DB0B0B02390019028B0043073B0B5A0978
:1003C00063092C07E50B0B023A001A028B00430766
:1003D0003B0B5B0963092C07F10B0B023B002C0460
:1003E0004C051B028B0043073B0B0A0C2D008C04B1
:1003F000AC056609ED02F90B6F028F0263093C0B35
:06040000E2010008000803
:10060000E80C2D00A3046F00070C88090D0288096F
:100610005F09FF0C880961095C09AD02F80C8D00C7
:10062000A3054307020BB00C2D00E80C2E00A30419
:100630006F00090C8809FD0C88090D0288090E025B
:1006400088095F09FF0C880961095C09AE02AD02E7
:10065000C00C8D00A3054307170BA304230BA304B1
:100660006F028F02880900083000A304FF0C88097C
:10067000A305F002350BA3040008A3045809880958
:0E068000590988095A0988095B098809000888
:021FFE00E60FEC
:00000001FF
