:040000002500000BCC
:10008000040C2900F90C2A000000EA02440AE902E3
:10009000420A0008020C4109080C28006C00030405
:1000A0002C032607EC054009E8024F0A4009000826
:1000B0000F0E2700300CE7013A0C87000307620A95
:1000C000070CE70107022B00F80C2600FA0C0600CB
:1000D0004009080C28006B022B030307F80C0306E9
:1000E000FA0C06004009E8026C0AF80C0600080C3D
:0C00F00041090008E201450843085308DC
:10020000FF0C2600C30C0200FF0C0600040C2700A4
:10021000FA0C4109E702080B26070C0B26060E0B09
:100220006D00830C210026060E0B01024307130B01
:10023000830C2100AD028D07130B300C8D000306DB
:100240000C0B26062A0B01024307210B830C21000D
:10025000AD021D0B030C270026072C0B020C4109D5
:100260002606300B4A09C7007A098C0043070C0B9D
:10027000E7022C0BF80C2600F80C0600080C4109CC
:0A028000490C6309FF0C06000C0B8B
:021FFE00EA0FE8
:00000001FF
