:100000002500000B320C2A005A0C2B0000000000C7
:1000100066060E0566070E040E020600EB02060ACF
:10002000000000000000000000000000EA02040AD6
:1000300003082700480C0309040C28000D0241099D
:100040002C006C02080C29002E050E020600040C80
:1000500003092C03F80C260003062E0503072E04C3
:100060000E020600040C0309E902290A2E040E02FE
:100070000600080C0309AD02E8021E0AE7021A0A8C
:100080000308E20153084308450849085308430898
:10009000450841085308430845084508FF0FFF0F6E
:1000A000FF0FFF0FFF0FFF0FFF0FFF0FFF0FFF0FE0
:1000B000FF0FFF0FFF0FFF0FFF0FFF0FFF0FFF0FD0
:1000C000FF0FFF0FFF0FFF0FFF0FFF0FFF0FFF0FC0
:1000D000FF0FFF0FFF0FFF0FFF0FFF0FFF0FFF0FB0
:1000E000FF0FFF0FFF0FFF0FFF0FFF0FFF0FFF0FA0
:1000F000FF0FFF0FFF0FFF0FFF0FFF0FFF0FFF0F90
:10010000FF0FFF0FFF0FFF0FFF0FFF0FFF0FFF0F7F
:10011000FF0FFF0FFF0FFF0FFF0FFF0FFF0FFF0F6F
:10012000FF0FFF0FFF0FFF0FFF0FFF0FFF0FFF0F5F
:10013000FF0FFF0FFF0FFF0FFF0FFF0FFF0FFF0F4F
:10014000FF0FFF0FFF0FFF0FFF0FFF0FFF0FFF0F3F
:10015000FF0FFF0FFF0FFF0FFF0FFF0FFF0FFF0F2F
:10016000FF0FFF0FFF0FFF0FFF0FFF0FFF0FFF0F1F
:10017000FF0FFF0FFF0FFF0FFF0FFF0FFF0FFF0F0F
:10018000FF0FFF0FFF0FFF0FFF0FFF0FFF0FFF0FFF
:10019000FF0FFF0FFF0FFF0FFF0FFF0FFF0FFF0FEF
:1001A000FF0FFF0FFF0FFF0FFF0FFF0FFF0FFF0FDF
:1001B000FF0FFF0FFF0FFF0FFF0FFF0FFF0FFF0FCF
:1001C000FF0FFF0FFF0FFF0FFF0FFF0FFF0FFF0FBF
:1001D000FF0FFF0FFF0FFF0FFF0FFF0FFF0FFF0FAF
:1001E000FF0FFF0FFF0FFF0FFF0FFF0FFF0FFF0F9F
:1001F000FF0FFF0FFF0FFF0FFF0FFF0FFF0FFF0F8F
:10020000C20C0200FF0C2E000600020906042604A0
:100210002E040E020600110C27000209E7020D0B46
:1002200046044E040E020600060C27000209E702EF
:10023000160B0E0C03096D0019091B0BFF0FFF0FA6
:10024000FF0FFF0FFF0FFF0FFF0FFF0FFF0FFF0F3E
:10025000FF0FFF0FFF0FFF0FFF0FFF0FFF0FFF0F2E
:10026000FF0FFF0FFF0FFF0FFF0FFF0FFF0FFF0F1E
:10027000FF0FFF0FFF0FFF0FFF0FFF0FFF0FFF0F0E
:10028000FF0FFF0FFF0FFF0FFF0FFF0FFF0FFF0FFE
:10029000FF0FFF0FFF0FFF0FFF0FFF0FFF0FFF0FEE
:1002A000FF0FFF0FFF0FFF0FFF0FFF0FFF0FFF0FDE
:1002B000FF0FFF0FFF0FFF0FFF0FFF0FFF0FFF0FCE
:1002C000FF0FFF0FFF0FFF0FFF0FFF0FFF0FFF0FBE
:1002D000FF0FFF0FFF0FFF0FFF0FFF0FFF0FFF0FAE
:1002E000FF0FFF0FFF0FFF0FFF0FFF0FFF0FFF0F9E
:1002F000FF0FFF0FFF0FFF0FFF0FFF0FFF0FFF0F8E
:10030000FF0FFF0FFF0FFF0FFF0FFF0FFF0FFF0F7D
:10031000FF0FFF0FFF0FFF0FFF0FFF0FFF0FFF0F6D
:10032000FF0FFF0FFF0FFF0FFF0FFF0FFF0FFF0F5D
:10033000FF0FFF0FFF0FFF0FFF0FFF0FFF0FFF0F4D
:10034000FF0FFF0FFF0FFF0FFF0FFF0FFF0FFF0F3D
:10035000FF0FFF0FFF0FFF0FFF0FFF0FFF0FFF0F2D
:10036000FF0FFF0FFF0FFF0FFF0FFF0FFF0FFF0F1D
:10037000FF0FFF0FFF0FFF0FFF0FFF0FFF0FFF0F0D
:10038000FF0FFF0FFF0FFF0FFF0FFF0FFF0FFF0FFD
:10039000FF0FFF0FFF0FFF0FFF0FFF0FFF0FFF0FED
:1003A000FF0FFF0FFF0FFF0FFF0FFF0FFF0FFF0FDD
:1003B000FF0FFF0FFF0FFF0FFF0FFF0FFF0FFF0FCD
:1003C000FF0FFF0FFF0FFF0FFF0FFF0FFF0FFF0FBD
:1003D000FF0FFF0FFF0FFF0FFF0FFF0FFF0FFF0FAD
:1003E000FF0FFF0FFF0FFF0FFF0FFF0FFF0FFF0F9D
:1003F000FF0FFF0FFF0FFF0FFF0FFF0FFF0FFF0F8D
:080400000000000000000000F4
:021FFE00EA0FE8
:00000001FF
