:100000008B01BD280D0882070000003490340E34A7
:100010000234013470340134AF34243400340034F9
:1000200069343F3482070034033404340934023421
:100030000C340B34093410340A34150882070034A8
:1000400057295C295F29722978297B297E298329F0
:100050007529000000000000000000000000000002
:100060004D006F0074006F0072006F006C00610043
:100070005400650073007400430061007200640066
:1000800020006200790020002000200020002000D5
:1000900052006F006E006E007900200020002000EA
:1000A00053007400650072006E00200020002000E4
:1000B00031003900390039002000280043002900B0
:1000C0000000000000000000000000000000000030
:1000D000000000000000000000000000013E031DC1
:1000E0006E280800FF3A8800890108308C00E03053
:1000F0006E20861F79288316861383128613EB30B1
:100100006E200000880D03188617031C8613031841
:100110008909EC306E20000000008C0B8228000062
:10012000000009188613091C8617EB306E2086170D
:10013000831686178312C0306E20080089010830AC
:100140008C00861FA128861BA328E8306E200000A3
:100150000310861B031403188909880DEC306E20E8
:100160000000000000008C0BA8280000861B8909F5
:100170000000F2306E20080908007F30620083160C
:1001800086178312003095009700980096008A0029
:100190003F309B0097170D308D00022072208D0B91
:1001A000CD289E2090009E2091009E208E009E20B3
:1001B0008F009E2094001008A03A031D0729110803
:1001C000203A031932291108B03A031944291108B9
:1001D000D63A0319592A1108C03A03198629110879
:1001E000A43A0319E3291108F23A031986291108E0
:1001F000FA3A031D0E2930306E20110872200029B2
:1002000060306E209030722000307220D128603033
:100210006E206E30722010087220D12830306E208F
:100220006D30722011087220D12830306E206B3072
:10023000722000307220D12830306E20673072205A
:10024000150812207220D12830306E209430722090
:1002500000307220D12830306E209430722004306B
:100260007220D1280E08031D15290F08031D15291A
:1002700030306E202030722014088D009E208D0BAF
:100280003E2900306E2000290E08031D15290F0895
:10029000031D1529150812201406031D1C29150815
:1002A0000319242930306E20B03072201D2881308F
:1002B000722002306B2200290430652200290830A8
:1002C00072200930722010307220103072201030ED
:1002D0007220323072205430722076307220983082
:1002E000722000290230652200290A306B22002981
:1002F0000C306B2200290B306B22002908306B2256
:1003000007307220002910306B2200290E080F05DB
:10031000031D1529971BB8291108F23A0319B829AA
:100320001408103A031D152930306E201108722070
:10033000033065221508122072206F3099000930B1
:1003400015060319A5292F309900190872201808DD
:10035000722002306522003072200030722000309E
:100360007220013072200330722003306522002990
:100370000E080F05031D15291408163A031D1C2924
:1003800030306E2011087220023065220530722054
:10039000BD3072201B0872201608722006306522BC
:1003A0000D30722081307220003072200A307220AD
:1003B0000830722000307220833072208A30722020
:1003C0000230652200290E080F05031D15291408A7
:1003D000023A031D1C2930306E20A43072209E206A
:1003E00099009E209A0019083F3A0319422A1908D9
:1003F0007F3A0319422A19082F3A0319032A1908C8
:100400006F3A031D2B29AD301A060319282A3830FC
:100410001A0603192A2A07301A0603192C2A7830DB
:100420001A0603192E2A7B301A060319302A7E3049
:100430001A060319322A20301A060319342A743096
:100440001A060319382AE2301A060319362A2B290C
:100450000130392A0230392A0330392A0430392A46
:100460000530392A0630392A0730392A0930392A25
:10047000083095001A08980097139F3072201030AA
:100480007220D1281A0820301A0603194E2A21306A
:100490001A0603194E2A1A08031D2B291A0896005A
:1004A00019089B00971795019F3072201630722013
:1004B000D12830306E20D630722014088D009E2056
:1004C0008D0B5F2A30306E200029900000307220A2
:1004D000900B662A08009000FF307220900B6C2A67
:1004E0000800FF3FFF3FFF3FFF3FFF3FFF3FFF3F52
:1004F000FF3FFF3FFF3FFF3FFF3FFF3FFF3FFF3F0C
:10050000FF3FFF3FFF3FFF3FFF3FFF3FFF3FFF3FFB
:10051000FF3FFF3FFF3FFF3FFF3FFF3FFF3FFF3FEB
:10052000FF3FFF3FFF3FFF3FFF3FFF3FFF3FFF3FDB
:02400E00E93F88
:104200004D006F0074006F0072006F006C00610061
:104210005400650073007400430061007200640084
:1042200052006F006E006E00790020002000200018
:1042300053007400650072006E0020002000200012
:1042400031003900390039002000280043002900DE
:10425000000000000000000000000000000000005E
:10426000000000000000000000000000000000004E
:10427000000000000000000000000000000000003E
:00000001FF
