:10000000B12165000930A0002930B72981018C0198
:10001000B520F0308A051B308400840A9F218000BF
:10002000841E0D280B30AF004D3E26201D060319FF
:100030001C282F0B132808282F08083C031C2428F1
:100040001D08A008031D7C212F03593E0A108A10A9
:1000500082003F3467342F340034113414340034B8
:100060000334683410340234CA3430342034003459
:100070008F34FF34F43400342034003400341F341F
:100080000034153400340434F8343B344B345B34DE
:100090006B341B34003407340E341534023404340A
:1000A000B834A434C03406342434AC348834F03446
:1000B0002634CB28B629D328672853298328E62855
:1000C000C0281E2965286E30B6206B30B6200A1273
:1000D0009E187D281E1D07289F219F210F39810012
:1000E0009F21F039810685202F08031D8C000319FC
:1000F0008A158B1303198B17BB288C0A8C1DBB2800
:100100008C038A1508283230B729AE010530AF00BC
:100110002F03453E26200106031998280730AE0715
:100120002E06031D95281530AE07AF0B8828AE01AB
:100130002E082F1DA028000105061C30031D383095
:1001400008008520890021308400B020891FAA285A
:10015000090826208000890A840A841DA528080031
:100160008316081483120808080090307C210A08BE
:1001700008397C2108000C03453E26208100082810
:10018000AC307C211E08AE00A73A031303190317F5
:10019000201D0828CE289F21A0032A1F8A159F21F1
:1001A000A00BCF2808282E087B212003031B0A3030
:1001B0007B21031FE22843307B2148307B210C0840
:1001C000303E7B217C21A00BE2288128A003A01BCC
:1001D00008289F21EF3E031CE62888009F212A1E45
:1001E0008815AA1E88170F3989008D00073009026B
:1001F000031C00290130091888003F3089001329A9
:1002000008089C003F308900B020033008054121D8
:10021000081E852089000D088907091B08281C086D
:100220008800201C9F218316081555308900AA30AC
:100230008900881488181A29831281280A161F0831
:100240008500852085193F21A2201A30A00299211E
:10025000EF21083089001430BF21EF218519011BDF
:100260003B298117850A3F218503432100000000B7
:1002700081133F2143210A30A0009921082803302F
:1002800005054A3E2628A2204521EC30890014307D
:10029000BF21F43089000C30BF211C308900283088
:1002A000BF21F62108000A1E6429EA307B211030A4
:1002B0007B210C30840000087C21840AA00B5B2980
:1002C000841A0828010873288C0839300319B729C3
:1002D00047300118811900307B2101080F3981193D
:1002E000203E81197529011851307B2101080F38F2
:1002F0007B213630B729A003AA00AA095B30B221BE
:100300007F306600AB0186130830A8001A30B22196
:100310002A08AB068613AA1B8617AA0DA80B8629E6
:10032000B1218613AB1F8617B121FF3066004F3015
:10033000B2299D21A00B9929080077307C21861BCA
:100340009F292A30B2210930A8000310861B03140C
:10035000AA0DB121A80BA529AA0C2830B2212A097F
:1003600008001B30A900A90BB32900344030AD00B0
:10037000A003A01B082826207C212D0AB729C12113
:10038000C2298400C321C42100088800090884020E
:1003900008088000090A84070800013001181B3092
:1003A000811B013088000310A4190314A411A70DA8
:1003B000A60DA50DA40DA30DA20DA10D03182416C5
:1003C000880BD32908008800880C080C0006840AD2
:1003D0003F390904FD2288004030890708001830A1
:1003E00084009D218000840A841EF129011C032AB7
:1003F000183095008317B922950A951EFB291030F5
:1004000089002830BF211030A000811B0B2A011861
:10041000201E0B2A152ACD2120030319152A0D3C75
:10042000031C152A063A031DCD212830940097019C
:10043000063096001708CA2295000739203E84002E
:10044000950DF03095050318950E1508031000055D
:10045000031D031414088400800D970A960B1A2AB2
:1004600000138013940A9419182A94019501970196
:100470008901283084001F0C1C0CE3218819951772
:100480000819961788189614081897141D0D1C0D36
:10049000E6218819951508191716881814170818D1
:1004A00016171C0C1D0CE3218819161408191514B5
:1004B00088181715081814151E0D1D0DE62188192A
:1004C00017170819161688181517081894171D0CF1
:1004D0001E0CE321881B1414081B1515881A971786
:1004E000081A94161F0D1E0DE621881B1416081BF2
:1004F0009715881A9516081A96161E0C1F0CE321DC
:10050000881B1714081B1516881A1615081A941438
:100510001C0D1F0DE621881B9415081B9716881AC1
:100520009514081A961518089406190895061A08BD
:1005300096061B089706043089001C30C121F8304C
:1005400089001430C121A00B052A811BAA2A011C95
:100550001534CD211F3095008313B9220430950640
:10056000151DAD2A95031519AD2A143089002830C0
:10057000BF292830960015088400831FC22A800DE9
:10058000800DC32A800C16088400800C960A161E63
:10059000BB2A08000A108A148207A234433412349A
:1005A0008B344134C13411340C349234A134C3340B
:1005B0002234933413340A340934243489348A3489
:1005C000913414340B34C234213446340F3494340F
:1005D000C53496349734A4348D341734C634453436
:1005E0008E340E34473495348F342534C734A634D2
:1005F000263427340D34C4348C340A148A1482000F
:100600002E34E034C434BF344D3427341134C43470
:1006100072344E34AF347234BB34DD346834113448
:1006200083345A345A3406343634FC34FC34AB3414
:10063000D534393409349534E0348334973468340C
:100640004434BF3421348C341E34C834B83472344A
:10065000AD341434D634E934723421348B34D73485
:10066000FF3465349C34FB34C934033457349E342E
:100670006334AA343A34403405345634E0343D34DB
:10068000CF34A3341134FD34A8344434FE34273439
:1006900096347F342B34C2346334983484345E34DB
:1006A00009346C34D73410343234D1344D34EA3414
:1006B000EC3406347034B93455343B34BA348534B0
:1006C00090344D34EE343834F7342A345B34C1344A
:1006D0002A34933484345F34CD34F4343134A23446
:1006E0007534BB340834E6344C341734A6347C34C7
:1006F00019346034D3340534B2348E346F34D93481
:100700004A34DD34B03407342934B034EE3479342B
:10071000F6344334033494348F341634D534AA3445
:100720003134E234CD3438349C3455347734CE34DB
:100730005B342C34A434FB3462348F341834613489
:100740001D3461344634BA34B434DD34D9348034A1
:10075000C83416343F3449347334A834E034773421
:10076000AB349434F1345F3462340E348C34F3346B
:100770000534EB345A3425349E3432342734CC34A7
:10078000D7341D342D34F8348E34DB34433485347F
:100790006034A634F6343F34B93470341A344334F8
:1007A000A134C4349234573438346234E534BC3420
:1007B0005B3401340C34EA34C4349E347F3429343D
:1007C0007A342334B6341F344934E0341034763468
:1007D0009C344A34CB34A134E7348D342D34D834AE
:1007E0000F34F9346134C434A3349534DE340B341B
:1007F000F5343C3432345734583462348434BE34A3
:02400E00190097
:104200004B0022000A000C001200A40064006D00A4
:10421000B700D8008D00CC00FD00BC00F1003000DC
:1042200071000C00C50002004E00640011007B000C
:10423000A600A600EE008600A0004A006E00A900BD
:104240003B0063007B00E900D400EC00E7006F0056
:10425000A8004E006D002200D500F7009C00ED0084
:104260002200480004005600BA00260099005C00B5
:1042700048002B00B300F800CD0042001D000100F3
:00000001FF
