:02000000000BF3
:10008000320C2A00DE0C2B000400EB02440A350C73
:100090002B000400EB02490AEA02420A0308270087
:1000A000480C4109040C28000D0274092C006C0254
:1000B000080C2900FB0C0600040C41092C03F90C68
:1000C00026000306FB0C0307F90C0600040C41098B
:1000D000E9025E0AF90C0600080C4109AD02E802CB
:1000E000540AE702500A0308E2015308430845088E
:1000F0004908530843084508410853084308450880
:020100004508B0
:10020000C20C0200FF0C060040092604FD0C06008B
:10021000110C27004009E7020A0B4604F90C0600FE
:10022000060C27004009E702120B0E0C41096D0075
:040230004F09170B50
:021FFE00ED0FE5
:00000001FF
