:10000000DF2832308C008330810001080038031D66
:1000100005288C0B032801348F0040300220063065
:100020008D001108422090003120910A8D0B11287B
:100030004030022005308D00110842209000312010
:10004000910A8D0B1C2811084220900004303220A8
:10005000910AF93086008316860083128F0B0D28D3
:100060000C3408308E00900DF93086000318FB30F8
:10007000031CF930831686008312043002208E0B95
:10008000332800348207FF3441343D342B34A63406
:1000900020342634A434F434AE349634D0340934C5
:1000A000A9343D342B34A534F4343A3487342C3419
:1000B000AE349734D0340D34093474342B34A53431
:1000C00074342634A434F434AE349534D034093442
:1000D000A9343D342B34A534F4342F34A53498346A
:1000E000F8341534D0340A34E934B8342734A5341C
:1000F000D8342634A434F434AE349634D0340034B6
:1001000009343D342B34A534F4342F34A434303442
:10011000CD349534D034003409343D342B34A734F5
:100120006C342634A434F434AE349634D0340034F1
:1001300009343D342B34A534F4343534E634E43416
:10014000AE349734D0340E34C934C2342B34A53491
:1001500074342634A434F434AE349534D0340034BA
:1001600009343D342B34A534F4342E34A734A83468
:10017000BE349534D034003409348D342B34A53456
:1001800000342634A434F434AE349634D0340034FD
:1001900009343D342B34A534F434203446345C34F3
:1001A000AE349734D0340F3441343D342B34A6343C
:1001B00020342634A434F434AE349634D034831648
:1001C00002308100FF3085008600831201208610F6
:1001D000FD3083168600831211308D0001208D0BB7
:1001E000EE280611FB3083168600831206308D0040
:1001F00001208D0BF8280E30022091010C20910077
:040200000C20FF28A7
:02400E00F93F78
:00000001FF
