:100000002500000B320C2A00F90C2B000000EB023B
:10001000060AEA02040A03082700480C0309040C34
:1000200028000D0231092C006C02080C2900FB0C81
:100030000600040C03092C03F90C26000306FB0C34
:100040000307F90C0600040C0309E9021B0AF90C6A
:100050000600080C0309AD02E802110AE7020D0AC6
:100060000308E201530843084508490853084308B8
:0C007000450841085308430845084508AE
:10020000C20C0200FF0C060002092604FD0C0600C9
:10021000110C27000209E7020A0B4604F90C06003C
:10022000060C27000209E702120B0E0C03096D00F1
:040230000C09170B93
:021FFE00EA0FE8
:00000001FF
