:10000000320C2B00DE0C2C0000000000EC02040A75
:10001000EB02020A03082800480C0109040C29001D
:100020000E0230092D006D02080C2A00FB0C0600A0
:10003000040C01092D03F90C26000306FB0C030731
:10004000F90C0600040C0109EA021A0AF90C060070
:10005000080C0109AE02E902100AE8020C0A0308C2
:10006000E201530843084508490853084308450876
:0A00700041085308430845084508FD
:10020000020C0200FF0C0500060000092604FD0C8C
:100210000600110C28000009E8020B0B4604F90C3B
:100220000600060C28000009E802130B0E0C010959
:060230006E000B09180B23
:0203FE00000BF2
:021FFE00F90FD9
:00000001FF
